{
  "_format": "hh-sol-artifact-1",
  "contractName": "Vote",
  "sourceName": "contracts/Vote.sol",
  "abi": [
    {
      "inputs": [],
      "stateMutability": "nonpayable",
      "type": "constructor"
    },
    {
      "inputs": [
        {
          "internalType": "bytes32",
          "name": "userElHash",
          "type": "bytes32"
        },
        {
          "internalType": "bytes32",
          "name": "candidateHash",
          "type": "bytes32"
        }
      ],
      "name": "commit",
      "outputs": [],
      "stateMutability": "nonpayable",
      "type": "function"
    },
    {
      "inputs": [
        {
          "internalType": "bytes32",
          "name": "userElHash",
          "type": "bytes32"
        }
      ],
      "name": "getVote",
      "outputs": [
        {
          "internalType": "bytes32",
          "name": "",
          "type": "bytes32"
        },
        {
          "internalType": "uint256",
          "name": "",
          "type": "uint256"
        },
        {
          "internalType": "bool",
          "name": "",
          "type": "bool"
        }
      ],
      "stateMutability": "view",
      "type": "function"
    },
    {
      "inputs": [
        {
          "internalType": "bytes32",
          "name": "userElHash",
          "type": "bytes32"
        },
        {
          "internalType": "string",
          "name": "candidate",
          "type": "string"
        },
        {
          "internalType": "string",
          "name": "secret",
          "type": "string"
        }
      ],
      "name": "reveal",
      "outputs": [],
      "stateMutability": "nonpayable",
      "type": "function"
    }
  ],
  "bytecode": "0x608060405234801561001057600080fd5b50600080546001600160a01b031916331790556104f9806100326000396000f3fe608060405234801561001057600080fd5b50600436106100415760003560e01c80633e92eac514610046578063515508691461005b578063e3ce094d1461008f575b600080fd5b6100596100543660046103c3565b6100a2565b005b61006e610069366004610430565b610240565b60408051938452602084019290925215159082015260600160405180910390f35b61005961009d366004610449565b6102b3565b6000838152600160208190526040909120908101546100fc5760405162461bcd60e51b8152602060048201526011602482015270139bdd0818dbdb5b5a5d1d1959081e595d607a1b60448201526064015b60405180910390fd5b428160010154106101625760405162461bcd60e51b815260206004820152602a60248201527f43616e6e6f7420636f6d6d697420616e642072657665616c20696e207468652060448201526973616d6520626c6f636b60b01b60648201526084016100f3565b600281015460ff16156101b75760405162461bcd60e51b815260206004820152601d60248201527f416c726561647920636f6d6d6974656420616e642072657665616c656400000060448201526064016100f3565b600083836040516020016101cc9291906104a6565b6040516020818303038152906040528051906020012090508160000154811461022c5760405162461bcd60e51b8152602060048201526012602482015271090c2e6d040c8decae6dc4ee840dac2e8c6d60731b60448201526064016100f3565b50600201805460ff19166001179055505050565b6000818152600160208190526040822090810154829182916102975760405162461bcd60e51b815260206004820152601060248201526f139bdd081e595d0818dbdb5b5a5d195960821b60448201526064016100f3565b80546001820154600290920154909691955060ff169350915050565b600082815260016020819052604090912090810154156103095760405162461bcd60e51b8152602060048201526011602482015270105b1c9958591e4818dbdb5b5a5d1d1959607a1b60448201526064016100f3565b908155426001820155600201805460ff1916905550565b634e487b7160e01b600052604160045260246000fd5b600082601f83011261034757600080fd5b813567ffffffffffffffff8082111561036257610362610320565b604051601f8301601f19908116603f0116810190828211818310171561038a5761038a610320565b816040528381528660208588010111156103a357600080fd5b836020870160208301376000602085830101528094505050505092915050565b6000806000606084860312156103d857600080fd5b83359250602084013567ffffffffffffffff808211156103f757600080fd5b61040387838801610336565b9350604086013591508082111561041957600080fd5b5061042686828701610336565b9150509250925092565b60006020828403121561044257600080fd5b5035919050565b6000806040838503121561045c57600080fd5b50508035926020909101359150565b6000815160005b8181101561048c5760208185018101518683015201610472565b8181111561049b576000828601525b509290920192915050565b60006104bb6104b5838661046b565b8461046b565b94935050505056fea26469706673582212204a3e12f0f9c17717fe85bac6ab7b172675d2feecb2baf70492cf7358981fa62464736f6c63430008090033",
  "linkReferences": {},
  "deployedLinkReferences": {}
}